{
  "abi": [
    {
      "inputs": [],
      "stateMutability": "nonpayable",
      "type": "constructor"
    },
    {
      "inputs": [],
      "name": "NTNFT__CanOnlyMintOnce",
      "type": "error"
    },
    {
      "inputs": [],
      "name": "NTNFT__NftNotTransferrable",
      "type": "error"
    },
    {
      "inputs": [],
      "name": "NTNFT__NotNFTOwner",
      "type": "error"
    },
    {
      "anonymous": false,
      "inputs": [
        {
          "indexed": true,
          "internalType": "address",
          "name": "owner",
          "type": "address"
        },
        {
          "indexed": true,
          "internalType": "address",
          "name": "approved",
          "type": "address"
        },
        {
          "indexed": true,
          "internalType": "uint256",
          "name": "tokenId",
          "type": "uint256"
        }
      ],
      "name": "Approval",
      "type": "event"
    },
    {
      "anonymous": false,
      "inputs": [
        {
          "indexed": true,
          "internalType": "address",
          "name": "owner",
          "type": "address"
        },
        {
          "indexed": true,
          "internalType": "address",
          "name": "operator",
          "type": "address"
        },
        {
          "indexed": false,
          "internalType": "bool",
          "name": "approved",
          "type": "bool"
        }
      ],
      "name": "ApprovalForAll",
      "type": "event"
    },
    {
      "anonymous": false,
      "inputs": [
        {
          "indexed": true,
          "internalType": "address",
          "name": "from",
          "type": "address"
        },
        {
          "indexed": true,
          "internalType": "address",
          "name": "to",
          "type": "address"
        },
        {
          "indexed": true,
          "internalType": "uint256",
          "name": "tokenId",
          "type": "uint256"
        }
      ],
      "name": "Transfer",
      "type": "event"
    },
    {
      "inputs": [
        {
          "internalType": "address",
          "name": "",
          "type": "address"
        },
        {
          "internalType": "uint256",
          "name": "",
          "type": "uint256"
        }
      ],
      "name": "approve",
      "outputs": [],
      "stateMutability": "pure",
      "type": "function"
    },
    {
      "inputs": [
        {
          "internalType": "address",
          "name": "owner",
          "type": "address"
        }
      ],
      "name": "balanceOf",
      "outputs": [
        {
          "internalType": "uint256",
          "name": "",
          "type": "uint256"
        }
      ],
      "stateMutability": "view",
      "type": "function"
    },
    {
      "inputs": [
        {
          "internalType": "uint256",
          "name": "tokenId",
          "type": "uint256"
        }
      ],
      "name": "burn",
      "outputs": [],
      "stateMutability": "nonpayable",
      "type": "function"
    },
    {
      "inputs": [
        {
          "internalType": "uint256",
          "name": "",
          "type": "uint256"
        }
      ],
      "name": "getApproved",
      "outputs": [
        {
          "internalType": "address",
          "name": "",
          "type": "address"
        }
      ],
      "stateMutability": "pure",
      "type": "function"
    },
    {
      "inputs": [],
      "name": "getTokenCounter",
      "outputs": [
        {
          "internalType": "uint256",
          "name": "",
          "type": "uint256"
        }
      ],
      "stateMutability": "view",
      "type": "function"
    },
    {
      "inputs": [
        {
          "internalType": "address",
          "name": "minter",
          "type": "address"
        }
      ],
      "name": "hasMinted",
      "outputs": [
        {
          "internalType": "bool",
          "name": "",
          "type": "bool"
        }
      ],
      "stateMutability": "view",
      "type": "function"
    },
    {
      "inputs": [
        {
          "internalType": "address",
          "name": "",
          "type": "address"
        },
        {
          "internalType": "address",
          "name": "",
          "type": "address"
        }
      ],
      "name": "isApprovedForAll",
      "outputs": [
        {
          "internalType": "bool",
          "name": "",
          "type": "bool"
        }
      ],
      "stateMutability": "pure",
      "type": "function"
    },
    {
      "inputs": [],
      "name": "mintNft",
      "outputs": [
        {
          "internalType": "uint256",
          "name": "",
          "type": "uint256"
        }
      ],
      "stateMutability": "nonpayable",
      "type": "function"
    },
    {
      "inputs": [],
      "name": "name",
      "outputs": [
        {
          "internalType": "string",
          "name": "",
          "type": "string"
        }
      ],
      "stateMutability": "view",
      "type": "function"
    },
    {
      "inputs": [
        {
          "internalType": "uint256",
          "name": "tokenId",
          "type": "uint256"
        }
      ],
      "name": "ownerOf",
      "outputs": [
        {
          "internalType": "address",
          "name": "",
          "type": "address"
        }
      ],
      "stateMutability": "view",
      "type": "function"
    },
    {
      "inputs": [
        {
          "internalType": "address",
          "name": "",
          "type": "address"
        },
        {
          "internalType": "address",
          "name": "",
          "type": "address"
        },
        {
          "internalType": "uint256",
          "name": "",
          "type": "uint256"
        }
      ],
      "name": "safeTransferFrom",
      "outputs": [],
      "stateMutability": "pure",
      "type": "function"
    },
    {
      "inputs": [
        {
          "internalType": "address",
          "name": "",
          "type": "address"
        },
        {
          "internalType": "address",
          "name": "",
          "type": "address"
        },
        {
          "internalType": "uint256",
          "name": "",
          "type": "uint256"
        },
        {
          "internalType": "bytes",
          "name": "",
          "type": "bytes"
        }
      ],
      "name": "safeTransferFrom",
      "outputs": [],
      "stateMutability": "pure",
      "type": "function"
    },
    {
      "inputs": [
        {
          "internalType": "address",
          "name": "",
          "type": "address"
        },
        {
          "internalType": "bool",
          "name": "",
          "type": "bool"
        }
      ],
      "name": "setApprovalForAll",
      "outputs": [],
      "stateMutability": "pure",
      "type": "function"
    },
    {
      "inputs": [
        {
          "internalType": "bytes4",
          "name": "interfaceId",
          "type": "bytes4"
        }
      ],
      "name": "supportsInterface",
      "outputs": [
        {
          "internalType": "bool",
          "name": "",
          "type": "bool"
        }
      ],
      "stateMutability": "view",
      "type": "function"
    },
    {
      "inputs": [],
      "name": "symbol",
      "outputs": [
        {
          "internalType": "string",
          "name": "",
          "type": "string"
        }
      ],
      "stateMutability": "view",
      "type": "function"
    },
    {
      "inputs": [
        {
          "internalType": "uint256",
          "name": "",
          "type": "uint256"
        }
      ],
      "name": "tokenURI",
      "outputs": [
        {
          "internalType": "string",
          "name": "",
          "type": "string"
        }
      ],
      "stateMutability": "pure",
      "type": "function"
    },
    {
      "inputs": [
        {
          "internalType": "address",
          "name": "",
          "type": "address"
        },
        {
          "internalType": "address",
          "name": "",
          "type": "address"
        },
        {
          "internalType": "uint256",
          "name": "",
          "type": "uint256"
        }
      ],
      "name": "transferFrom",
      "outputs": [],
      "stateMutability": "pure",
      "type": "function"
    }
  ],
  "bytecode": {
    "object": "0x60806040523480156200001157600080fd5b506040518060400160405280600681526020016509ef082eae8d60d31b8152506040518060400160405280600281526020016109ef60f31b81525081600090816200005d91906200011a565b5060016200006c82826200011a565b505050620001e6565b634e487b7160e01b600052604160045260246000fd5b600181811c90821680620000a057607f821691505b602082108103620000c157634e487b7160e01b600052602260045260246000fd5b50919050565b601f8211156200011557600081815260208120601f850160051c81016020861015620000f05750805b601f850160051c820191505b818110156200011157828155600101620000fc565b5050505b505050565b81516001600160401b0381111562000136576200013662000075565b6200014e816200014784546200008b565b84620000c7565b602080601f8311600181146200018657600084156200016d5750858301515b600019600386901b1c1916600185901b17855562000111565b600085815260208120601f198616915b82811015620001b75788860151825594840194600190910190840162000196565b5085821015620001d65787850151600019600388901b60f8161c191681555b5050505050600190811b01905550565b610d0380620001f66000396000f3fe608060405234801561001057600080fd5b506004361061010b5760003560e01c80636352211e116100a2578063a22cb46511610071578063a22cb4651461021e578063b88d4fde1461022c578063c2229fea1461023a578063c87b56dd14610242578063e985e9c51461025557600080fd5b80636352211e146101da5780636e02007d146101ed57806370a082311461020357806395d89b411461021657600080fd5b806323b872dd116100de57806323b872dd1461018d57806338e21cce1461019b57806342842e0e1461018d57806342966c68146101c757600080fd5b806301ffc9a71461011057806306fdde0314610138578063081812fc1461014d578063095ea7b314610178575b600080fd5b61012361011e3660046108fa565b610263565b60405190151581526020015b60405180910390f35b6101406102b5565b60405161012f9190610964565b61016061015b366004610977565b610347565b6040516001600160a01b03909116815260200161012f565b61018b6101863660046109ac565b610362565b005b61018b6101863660046109d6565b6101236101a9366004610a12565b6001600160a01b031660009081526007602052604090205460ff1690565b61018b6101d5366004610977565b61037b565b6101606101e8366004610977565b6103cf565b6101f5610439565b60405190815260200161012f565b6101f5610211366004610a12565b610449565b6101406104cf565b61018b610186366004610a2d565b61018b610186366004610a7f565b6101f56104de565b610140610250366004610977565b610553565b61012361015b366004610b5b565b60006001600160e01b031982166380ac58cd60e01b148061029457506001600160e01b03198216635b5e139f60e01b145b806102af57506301ffc9a760e01b6001600160e01b03198316145b92915050565b6060600080546102c490610b8e565b80601f01602080910402602001604051908101604052809291908181526020018280546102f090610b8e565b801561033d5780601f106103125761010080835404028352916020019161033d565b820191906000526020600020905b81548152906001019060200180831161032057829003601f168201915b5050505050905090565b600060405163ba6925a760e01b815260040160405180910390fd5b60405163ba6925a760e01b815260040160405180910390fd5b33610385826103cf565b6001600160a01b0316146103ac576040516322291aab60e11b815260040160405180910390fd5b336000908152600760205260409020805460ff191690556103cc81610574565b50565b6000818152600260205260408120546001600160a01b0316806102af5760405162461bcd60e51b815260206004820152601860248201527f4552433732313a20696e76616c696420746f6b656e204944000000000000000060448201526064015b60405180910390fd5b600061044460065490565b905090565b60006001600160a01b0382166104b35760405162461bcd60e51b815260206004820152602960248201527f4552433732313a2061646472657373207a65726f206973206e6f7420612076616044820152683634b21037bbb732b960b91b6064820152608401610430565b506001600160a01b031660009081526003602052604090205490565b6060600180546102c490610b8e565b3360009081526007602052604081205460ff161561050f57604051633841172960e11b815260040160405180910390fd5b600061051a60065490565b905061052a600680546001019055565b610534338261060a565b336000908152600760205260409020805460ff19166001179055905090565b6060604051806080016040528060598152602001610c756059913992915050565b600061057f826103cf565b905061058a826103cf565b600083815260046020908152604080832080546001600160a01b03199081169091556001600160a01b0385168085526003845282852080546000190190558785526002909352818420805490911690555192935084927fddf252ad1be2c89b69c2b068fc378daa952ba7f163c4a11628f55a4df523b3ef908390a45b5050565b6106068282604051806020016040528060008152506106298383610657565b61063660008484846107e2565b6106525760405162461bcd60e51b815260040161043090610bc8565b505050565b6001600160a01b0382166106ad5760405162461bcd60e51b815260206004820181905260248201527f4552433732313a206d696e7420746f20746865207a65726f20616464726573736044820152606401610430565b6000818152600260205260409020546001600160a01b0316156107125760405162461bcd60e51b815260206004820152601c60248201527f4552433732313a20746f6b656e20616c7265616479206d696e746564000000006044820152606401610430565b6000818152600260205260409020546001600160a01b0316156107775760405162461bcd60e51b815260206004820152601c60248201527f4552433732313a20746f6b656e20616c7265616479206d696e746564000000006044820152606401610430565b6001600160a01b038216600081815260036020908152604080832080546001019055848352600290915280822080546001600160a01b0319168417905551839291907fddf252ad1be2c89b69c2b068fc378daa952ba7f163c4a11628f55a4df523b3ef908290a45050565b60006001600160a01b0384163b156108d857604051630a85bd0160e11b81526001600160a01b0385169063150b7a0290610826903390899088908890600401610c1a565b6020604051808303816000875af1925050508015610861575060408051601f3d908101601f1916820190925261085e91810190610c57565b60015b6108be573d80801561088f576040519150601f19603f3d011682016040523d82523d6000602084013e610894565b606091505b5080516000036108b65760405162461bcd60e51b815260040161043090610bc8565b805181602001fd5b6001600160e01b031916630a85bd0160e11b1490506108dc565b5060015b949350505050565b6001600160e01b0319811681146103cc57600080fd5b60006020828403121561090c57600080fd5b8135610917816108e4565b9392505050565b6000815180845260005b8181101561094457602081850181015186830182015201610928565b506000602082860101526020601f19601f83011685010191505092915050565b602081526000610917602083018461091e565b60006020828403121561098957600080fd5b5035919050565b80356001600160a01b03811681146109a757600080fd5b919050565b600080604083850312156109bf57600080fd5b6109c883610990565b946020939093013593505050565b6000806000606084860312156109eb57600080fd5b6109f484610990565b9250610a0260208501610990565b9150604084013590509250925092565b600060208284031215610a2457600080fd5b61091782610990565b60008060408385031215610a4057600080fd5b610a4983610990565b915060208301358015158114610a5e57600080fd5b809150509250929050565b634e487b7160e01b600052604160045260246000fd5b60008060008060808587031215610a9557600080fd5b610a9e85610990565b9350610aac60208601610990565b925060408501359150606085013567ffffffffffffffff80821115610ad057600080fd5b818701915087601f830112610ae457600080fd5b813581811115610af657610af6610a69565b604051601f8201601f19908116603f01168101908382118183101715610b1e57610b1e610a69565b816040528281528a6020848701011115610b3757600080fd5b82602086016020830137600060208483010152809550505050505092959194509250565b60008060408385031215610b6e57600080fd5b610b7783610990565b9150610b8560208401610990565b90509250929050565b600181811c90821680610ba257607f821691505b602082108103610bc257634e487b7160e01b600052602260045260246000fd5b50919050565b60208082526032908201527f4552433732313a207472616e7366657220746f206e6f6e20455243373231526560408201527131b2b4bb32b91034b6b83632b6b2b73a32b960711b606082015260800190565b6001600160a01b0385811682528416602082015260408101839052608060608201819052600090610c4d9083018461091e565b9695505050505050565b600060208284031215610c6957600080fd5b8151610917816108e456fe68747470733a2f2f697066732e696f2f697066732f516d63783954395759785532774c756b356270744a5677716a747851504c3853786a67556b6f45614471577a74693f66696c656e616d653d42617369634e46542e706e67a2646970667358221220fa3e69156fa977512252253419bb8df11e897fca9cf9668afe2b29065dbfd2ee64736f6c63430008110033",
    "linkReferences": {}
  },
  "methodIdentifiers": {
    "approve(address,uint256)": "095ea7b3",
    "balanceOf(address)": "70a08231",
    "burn(uint256)": "42966c68",
    "getApproved(uint256)": "081812fc",
    "getTokenCounter()": "6e02007d",
    "hasMinted(address)": "38e21cce",
    "isApprovedForAll(address,address)": "e985e9c5",
    "mintNft()": "c2229fea",
    "name()": "06fdde03",
    "ownerOf(uint256)": "6352211e",
    "safeTransferFrom(address,address,uint256)": "42842e0e",
    "safeTransferFrom(address,address,uint256,bytes)": "b88d4fde",
    "setApprovalForAll(address,bool)": "a22cb465",
    "supportsInterface(bytes4)": "01ffc9a7",
    "symbol()": "95d89b41",
    "tokenURI(uint256)": "c87b56dd",
    "transferFrom(address,address,uint256)": "23b872dd"
  },
  "id": 13
}