{
  "abi": [
    {
      "inputs": [
        {
          "internalType": "address",
          "name": "_nftAddress",
          "type": "address"
        }
      ],
      "stateMutability": "nonpayable",
      "type": "constructor"
    },
    {
      "inputs": [],
      "name": "KYC__AddressHasNotMinted",
      "type": "error"
    },
    {
      "inputs": [],
      "name": "KYC__FieldDoesNotExist",
      "type": "error"
    },
    {
      "inputs": [],
      "name": "KYC__INVALIDSignatureLength",
      "type": "error"
    },
    {
      "inputs": [],
      "name": "KYC__NotYetApprovedToEncryptWithPublicKey",
      "type": "error"
    },
    {
      "inputs": [],
      "name": "KYC__NotYetApprovedToView",
      "type": "error"
    },
    {
      "anonymous": false,
      "inputs": [
        {
          "indexed": true,
          "internalType": "address",
          "name": "approver",
          "type": "address"
        },
        {
          "indexed": true,
          "internalType": "address",
          "name": "thirdParty",
          "type": "address"
        },
        {
          "indexed": true,
          "internalType": "string",
          "name": "data",
          "type": "string"
        }
      ],
      "name": "AccessGrant",
      "type": "event"
    },
    {
      "anonymous": false,
      "inputs": [
        {
          "indexed": true,
          "internalType": "address",
          "name": "requester",
          "type": "address"
        },
        {
          "indexed": true,
          "internalType": "address",
          "name": "to",
          "type": "address"
        },
        {
          "indexed": true,
          "internalType": "string",
          "name": "data",
          "type": "string"
        }
      ],
      "name": "ApproveRequest",
      "type": "event"
    },
    {
      "anonymous": false,
      "inputs": [
        {
          "indexed": true,
          "internalType": "address",
          "name": "approver",
          "type": "address"
        },
        {
          "indexed": true,
          "internalType": "address",
          "name": "requester",
          "type": "address"
        },
        {
          "indexed": false,
          "internalType": "string",
          "name": "data",
          "type": "string"
        }
      ],
      "name": "GrantRevoke",
      "type": "event"
    },
    {
      "inputs": [
        {
          "internalType": "address",
          "name": "dataRequester",
          "type": "address"
        },
        {
          "internalType": "address",
          "name": "dataProvider",
          "type": "address"
        },
        {
          "internalType": "string",
          "name": "data",
          "type": "string"
        }
      ],
      "name": "approveCondition",
      "outputs": [
        {
          "internalType": "bool",
          "name": "",
          "type": "bool"
        }
      ],
      "stateMutability": "view",
      "type": "function"
    },
    {
      "inputs": [
        {
          "internalType": "address",
          "name": "dataProvider",
          "type": "address"
        },
        {
          "internalType": "string",
          "name": "data",
          "type": "string"
        }
      ],
      "name": "decryptMyData",
      "outputs": [
        {
          "internalType": "string",
          "name": "",
          "type": "string"
        }
      ],
      "stateMutability": "view",
      "type": "function"
    },
    {
      "inputs": [
        {
          "internalType": "address",
          "name": "dataProviderAddress",
          "type": "address"
        }
      ],
      "name": "generateHash",
      "outputs": [
        {
          "internalType": "bytes32",
          "name": "",
          "type": "bytes32"
        }
      ],
      "stateMutability": "nonpayable",
      "type": "function"
    },
    {
      "inputs": [
        {
          "internalType": "address",
          "name": "dataProviderAddress",
          "type": "address"
        }
      ],
      "name": "getEthHashedData",
      "outputs": [
        {
          "internalType": "bytes32",
          "name": "",
          "type": "bytes32"
        }
      ],
      "stateMutability": "view",
      "type": "function"
    },
    {
      "inputs": [
        {
          "internalType": "address",
          "name": "dataProvider",
          "type": "address"
        },
        {
          "internalType": "string",
          "name": "kycField",
          "type": "string"
        }
      ],
      "name": "getRequestedDataFromProvider",
      "outputs": [
        {
          "internalType": "string",
          "name": "",
          "type": "string"
        }
      ],
      "stateMutability": "view",
      "type": "function"
    },
    {
      "inputs": [
        {
          "internalType": "address",
          "name": "dataRequester",
          "type": "address"
        },
        {
          "internalType": "string",
          "name": "kycField",
          "type": "string"
        }
      ],
      "name": "grantAccessToRequester",
      "outputs": [],
      "stateMutability": "nonpayable",
      "type": "function"
    },
    {
      "inputs": [
        {
          "internalType": "address",
          "name": "dataProvider",
          "type": "address"
        },
        {
          "internalType": "string",
          "name": "kycField",
          "type": "string"
        }
      ],
      "name": "requestApproveFromDataProvider",
      "outputs": [],
      "stateMutability": "nonpayable",
      "type": "function"
    },
    {
      "inputs": [
        {
          "internalType": "address",
          "name": "dataRequester",
          "type": "address"
        },
        {
          "internalType": "string",
          "name": "kycField",
          "type": "string"
        }
      ],
      "name": "revokeGrantToRequester",
      "outputs": [],
      "stateMutability": "nonpayable",
      "type": "function"
    },
    {
      "inputs": [
        {
          "internalType": "string",
          "name": "_name",
          "type": "string"
        },
        {
          "internalType": "string",
          "name": "_father_name",
          "type": "string"
        },
        {
          "internalType": "string",
          "name": "_mother_name",
          "type": "string"
        },
        {
          "internalType": "string",
          "name": "_grandFather_name",
          "type": "string"
        },
        {
          "internalType": "string",
          "name": "_phone_number",
          "type": "string"
        },
        {
          "internalType": "string",
          "name": "_dob",
          "type": "string"
        },
        {
          "internalType": "string",
          "name": "_blood_group",
          "type": "string"
        },
        {
          "internalType": "string",
          "name": "_citizenship_number",
          "type": "string"
        },
        {
          "internalType": "string",
          "name": "_pan_number",
          "type": "string"
        },
        {
          "internalType": "string",
          "name": "_location",
          "type": "string"
        }
      ],
      "name": "setUserData",
      "outputs": [],
      "stateMutability": "nonpayable",
      "type": "function"
    },
    {
      "inputs": [
        {
          "internalType": "address",
          "name": "dataRequester",
          "type": "address"
        },
        {
          "internalType": "string",
          "name": "kycField",
          "type": "string"
        },
        {
          "internalType": "string",
          "name": "data",
          "type": "string"
        }
      ],
      "name": "storeRsaEncryptedinRetrievable",
      "outputs": [],
      "stateMutability": "nonpayable",
      "type": "function"
    },
    {
      "inputs": [
        {
          "internalType": "string",
          "name": "kycField",
          "type": "string"
        },
        {
          "internalType": "string",
          "name": "data",
          "type": "string"
        }
      ],
      "name": "updateKYCDetails",
      "outputs": [],
      "stateMutability": "nonpayable",
      "type": "function"
    },
    {
      "inputs": [
        {
          "internalType": "address",
          "name": "dataProviderAddress",
          "type": "address"
        },
        {
          "internalType": "bytes",
          "name": "signature",
          "type": "bytes"
        }
      ],
      "name": "verify",
      "outputs": [
        {
          "internalType": "bool",
          "name": "",
          "type": "bool"
        }
      ],
      "stateMutability": "nonpayable",
      "type": "function"
    }
  ],
  "bytecode": {
    "object": "0x60a060405234801561001057600080fd5b50604051620024d3380380620024d383398101604081905261003191610042565b6001600160a01b0316608052610072565b60006020828403121561005457600080fd5b81516001600160a01b038116811461006b57600080fd5b9392505050565b60805161243e62000095600039600081816108380152610b80015261243e6000f3fe608060405234801561001057600080fd5b50600436106100b45760003560e01c8063852beb5611610071578063852beb5614610150578063be11ff7014610163578063d822f82514610183578063df4f354714610196578063f2aeb852146101a9578063ff841e0f146101bc57600080fd5b806321a3f733146100b95780633df32710146100df5780634a41d1ac146100f4578063517dfd5a1461011757806351f1dd771461012a57806365ca9ba11461013d575b600080fd5b6100cc6100c7366004611bbf565b6101e5565b6040519081526020015b60405180910390f35b6100f26100ed366004611c8d565b6101f6565b005b610107610102366004611cdb565b61033b565b60405190151581526020016100d6565b6100f2610125366004611d33565b6103a5565b6100f2610138366004611da7565b610412565b6100f261014b366004611e01565b610823565b6100f261015e366004611c8d565b610a23565b610176610171366004611c8d565b610b68565b6040516100d69190611fdc565b610176610191366004611fef565b610cff565b6101076101a4366004612072565b6112b0565b6100f26101b7366004611c8d565b6112f2565b6100cc6101ca366004611bbf565b6001600160a01b031660009081526003602052604090205490565b60006101f0826113d4565b92915050565b8181600061020533848461144d565b90508160405160200161021891906120c6565b60408051601f19818403018152828252805160209182012060008581526001835292909220919261024a92910161211c565b60405160208183030381529060405280519060200120146102ae5760405162461bcd60e51b81526020600482015260196024820152784f78417574685f5f4e6f74417070726f766564546f5669657760381b60448201526064015b60405180910390fd5b60006102bb33878761144d565b905060006102cc602083831a612192565b905060006001821b6000848152602081905260409081902080548319169055519091506001600160a01b0389169033907f1c74b14b2a92b57b505a4f01e3b18f7b7f09f7038625fea406fa666f3308e93690610329908b90611fdc565b60405180910390a35050505050505050565b600080610347846113d4565b9050836001600160a01b031661035d8285611483565b6001600160a01b03160361039b5750506001600160a01b0382166000908152600260205260409020600a01805460ff191660019081179091556101f0565b5060009392505050565b60006103b233858561144d565b600081815260208190526040812054919250036103e25760405163f4ed8f1b60e01b815260040160405180910390fd5b60006103ef33868661144d565b600081815260046020526040902090915061040a84826121fa565b505050505050565b81516020808401919091206040805180820190915260048152636e616d6560e01b9201919091527f2361458367e696363fbcc70777d07ebbd2394e89fd0adcaf147faccd1d294d608190036104805733600090815260026020526040902061047a83826121fa565b50505050565b60408051808201909152600b81526a6661746865725f6e616d6560a81b6020909101527f6b85169270ca901331db6f7c09e74415927f5b0a89b404296f51254a838da2408190036104e45733600090815260026020526040902061047a83826121fa565b60408051808201909152600b81526a6d6f746865725f6e616d6560a81b6020909101527fc8cd1e5a5c24e4602332537bc712ac7285fc527bee6b4b14085a49689e0552358190036105485733600090815260026020526040902061047a83826121fa565b60408051808201909152601081526f6772616e644661746865725f6e616d6560801b6020909101527f5543ac31d0cb7b5524a8666ac8e98be971588a4a6248a70b6925a369ef3030cd8190036105b15733600090815260026020526040902061047a83826121fa565b60408051808201909152600c81526b383437b732afb73ab6b132b960a11b6020909101527f09ddd4afcf9b80b88840b364f9490216fc89d661e60bcdaafdfc4b1eff5a19398190036106165733600090815260026020526040902061047a83826121fa565b6040805180820190915260038152623237b160e91b6020909101527f635ec02f32ae461b745f21d9409955a9b5a660b486d30e7b5d4bfda4a75dec808190036106725733600090815260026020526040902061047a83826121fa565b60408051808201909152600b81526a0626c6f6f645f67726f75760ac1b6020909101527faf95a7b8c955596c542d30a475e5507c325716739220934a46a5af90fcf452a28190036106d65733600090815260026020526040902061047a83826121fa565b60408051808201909152601281527131b4ba34bd32b739b434b82fb73ab6b132b960711b6020909101527f98993b87376e7feb5a91459be669f8e1826ae9bd8e0da8790c3323c98ff9b0198190036107415733600090815260026020526040902061047a83826121fa565b60408051808201909152600a8152693830b72fb73ab6b132b960b11b6020909101527ff03ba39d3d2e5adc76c2ef6dcd0b01853e287e798ea71d6bbe6df79112ab435b8190036107a45733600090815260026020526040902061047a83826121fa565b6040805180820190915260088152673637b1b0ba34b7b760c11b6020909101527f32418106fd89af94305d9787acb608a501b749f5f1783cfca7b3f864595254ca8190036108055733600090815260026020526040902061047a83826121fa565b604051632f4a4f6560e21b815260040160405180910390fd5b505050565b604051631c710e6760e11b81523360048201527f00000000000000000000000000000000000000000000000000000000000000006001600160a01b0316906338e21cce90602401602060405180830381865afa158015610887573d6000803e3d6000fd5b505050506040513d601f19601f820116820180604052508101906108ab91906122ba565b6108c857604051632897355960e11b815260040160405180910390fd5b60408051610160810182528b815260208082018c90528183018b9052606082018a90526080820189905260a0820188905260c0820187905260e0820186905261010082018590526101208201849052600061014083018190523381526002909152919091208151819061093b90826121fa565b506020820151600182019061095090826121fa565b506040820151600282019061096590826121fa565b506060820151600382019061097a90826121fa565b506080820151600482019061098f90826121fa565b5060a082015160058201906109a490826121fa565b5060c082015160068201906109b990826121fa565b5060e082015160078201906109ce90826121fa565b5061010082015160088201906109e490826121fa565b5061012082015160098201906109fa90826121fa565b506101409190910151600a909101805460ff191691151591909117905550505050505050505050565b81816000610a3233848461144d565b905081604051602001610a4591906120c6565b60408051601f198184030181528282528051602091820120600085815260018352929092209192610a7792910161211c565b6040516020818303038152906040528051906020012014610ad65760405162461bcd60e51b81526020600482015260196024820152784f78417574685f5f4e6f74417070726f766564546f5669657760381b60448201526064016102a5565b6000610ae333878761144d565b90506000610af4602083831a612192565b905060006001821b6000848152602081905260409081902080548317905551909150610b219088906120c6565b604051908190038120906001600160a01b038a169033907ff458a6134491d63bea827b8e9366ebc67361bdd8733bc0e0e9ba1a23ac9a85dc90600090a45050505050505050565b604051631c710e6760e11b81523360048201526060907f00000000000000000000000000000000000000000000000000000000000000006001600160a01b0316906338e21cce90602401602060405180830381865afa158015610bcf573d6000803e3d6000fd5b505050506040513d601f19601f82011682018060405250810190610bf391906122ba565b610c1057604051632897355960e11b815260040160405180910390fd5b6000610c1d84338561144d565b60008181526020819052604081205491925003610c4d5760405163352a4bb160e11b815260040160405180910390fd5b6000610c5a85338661144d565b6000818152600460205260409020805491925090610c77906120e2565b80601f0160208091040260200160405190810160405280929190818152602001828054610ca3906120e2565b8015610cf05780601f10610cc557610100808354040283529160200191610cf0565b820191906000526020600020905b815481529060010190602001808311610cd357829003601f168201915b50505050509250505092915050565b60606001600160a01b0384163314610d495760405162461bcd60e51b815260206004820152600d60248201526c25aca1afafa737ba27bbb732b960991b60448201526064016102a5565b6000829003610d6a5760405162461bcd60e51b81526004016102a5906122dc565b60008383604051610d7c92919061230b565b604080519182900382206020808401835260008452825180840190935260048352636e616d6560e01b92019190915291507fdc9eba7c981969c9c04338f8882f81442dc6b17602f52350eb805332e2d6b2a08201610e7c576001600160a01b03861660009081526002602052604090208054610df7906120e2565b80601f0160208091040260200160405190810160405280929190818152602001828054610e23906120e2565b8015610e705780601f10610e4557610100808354040283529160200191610e70565b820191906000526020600020905b815481529060010190602001808311610e5357829003601f168201915b50505050509050611286565b60408051808201909152600b81526a6661746865725f6e616d6560a81b6020909101527f947ae96d8f356fecce249083f618bbea6d80a4f5764bfbd690aedab57c725dc08201610eec576001600160a01b03861660009081526002602052604090206001018054610df7906120e2565b60408051808201909152600b81526a6d6f746865725f6e616d6560a81b6020909101527f3732e1a5a3db1b9fdccdac8438ed538d7a03ad841194b4ebf7a5b69761faadcb8201610f5d576001600160a01b0386166000908152600260208190526040909120018054610df7906120e2565b60408051808201909152601081526f6772616e644661746865725f6e616d6560801b6020909101527faabc53ce2f3484aadb579995371674168ea775b59db758f496da5c9610cfcf338201610fd2576001600160a01b03861660009081526002602052604090206003018054610df7906120e2565b60408051808201909152600c81526b383437b732afb73ab6b132b960a11b6020909101527ff6222b5030647f4777bf4c9b06b6fde90376299e19f432550203b4e100a5e6c78201611043576001600160a01b03861660009081526002602052604090206004018054610df7906120e2565b6040805180820190915260038152623237b160e91b6020909101527f9ca13fd0cd51b9e48ba0de26bf66aa564a599f4b792cf184a2b4025b58a2138082016110ab576001600160a01b03861660009081526002602052604090206005018054610df7906120e2565b60408051808201909152600b81526a0626c6f6f645f67726f75760ac1b6020909101527f506a584736aaa693abd2cf5b8a1aaf83cda8e98c6ddf6cb5b95a506f030bad5e820161111b576001600160a01b03861660009081526002602052604090206006018054610df7906120e2565b60408051808201909152601281527131b4ba34bd32b739b434b82fb73ab6b132b960711b6020909101527f6766c478c8918014a56eba641996071e7d95164271f25786f3ccdc3670064fe78201611192576001600160a01b03861660009081526002602052604090206007018054610df7906120e2565b60408051808201909152600a8152693830b72fb73ab6b132b960b11b6020909101527f0fc45c62c2d1a523893d109232f4fe7ac1d781867158e2944192086eed54bca58201611201576001600160a01b03861660009081526002602052604090206008018054610df7906120e2565b6040805180820190915260088152673637b1b0ba34b7b760c11b6020909101527fcdbe7ef90276506bcfa268785349f75afe48b60a0e87c303584c079ba6adab36820161126e576001600160a01b03861660009081526002602052604090206009018054610df7906120e2565b60405162461bcd60e51b81526004016102a5906122dc565b80516000036112a75760405162461bcd60e51b81526004016102a5906122dc565b95945050505050565b6000806112be84868561144d565b905060006112cf602083831a612192565b60009283526020839052604090922054600190921b909116151595945050505050565b60006112ff83338461144d565b600081815260016020526040902080549192509061131c906120e2565b15905061136b5760405162461bcd60e51b815260206004820152601760248201527f4f78417574685f5f4f6e6c794f6e6365416c6c6f77656400000000000000000060448201526064016102a5565b600081815260016020526040902061138383826121fa565b508160405161139291906120c6565b6040519081900381209033906001600160a01b038616907f16d065f1eb4e9eb9d81ef1ac8d5a705b0e9446f547727b761afd319c8fe4e41690600090a4505050565b6000806113e083611502565b6040517f19457468657265756d205369676e6564204d6573736167653a0a3332000000006020820152603c810191909152605c0160408051601f1981840301815291815281516020928301206001600160a01b039095166000908152600390925290208390555090919050565b60008383836040516020016114649392919061231b565b6040516020818303038152906040528051906020012090509392505050565b60008060008061149285611b5e565b6040805160008152602081018083528b905260ff8316918101919091526060810184905260808101839052929550909350915060019060a0016020604051602081039080840390855afa1580156114ed573d6000803e3d6000fd5b5050604051601f190151979650505050505050565b6001600160a01b0381166000908152600260205260408082208151610160810190925280548392919082908290611538906120e2565b80601f0160208091040260200160405190810160405280929190818152602001828054611564906120e2565b80156115b15780601f10611586576101008083540402835291602001916115b1565b820191906000526020600020905b81548152906001019060200180831161159457829003601f168201915b505050505081526020016001820180546115ca906120e2565b80601f01602080910402602001604051908101604052809291908181526020018280546115f6906120e2565b80156116435780601f1061161857610100808354040283529160200191611643565b820191906000526020600020905b81548152906001019060200180831161162657829003601f168201915b5050505050815260200160028201805461165c906120e2565b80601f0160208091040260200160405190810160405280929190818152602001828054611688906120e2565b80156116d55780601f106116aa576101008083540402835291602001916116d5565b820191906000526020600020905b8154815290600101906020018083116116b857829003601f168201915b505050505081526020016003820180546116ee906120e2565b80601f016020809104026020016040519081016040528092919081815260200182805461171a906120e2565b80156117675780601f1061173c57610100808354040283529160200191611767565b820191906000526020600020905b81548152906001019060200180831161174a57829003601f168201915b50505050508152602001600482018054611780906120e2565b80601f01602080910402602001604051908101604052809291908181526020018280546117ac906120e2565b80156117f95780601f106117ce576101008083540402835291602001916117f9565b820191906000526020600020905b8154815290600101906020018083116117dc57829003601f168201915b50505050508152602001600582018054611812906120e2565b80601f016020809104026020016040519081016040528092919081815260200182805461183e906120e2565b801561188b5780601f106118605761010080835404028352916020019161188b565b820191906000526020600020905b81548152906001019060200180831161186e57829003601f168201915b505050505081526020016006820180546118a4906120e2565b80601f01602080910402602001604051908101604052809291908181526020018280546118d0906120e2565b801561191d5780601f106118f25761010080835404028352916020019161191d565b820191906000526020600020905b81548152906001019060200180831161190057829003601f168201915b50505050508152602001600782018054611936906120e2565b80601f0160208091040260200160405190810160405280929190818152602001828054611962906120e2565b80156119af5780601f10611984576101008083540402835291602001916119af565b820191906000526020600020905b81548152906001019060200180831161199257829003601f168201915b505050505081526020016008820180546119c8906120e2565b80601f01602080910402602001604051908101604052809291908181526020018280546119f4906120e2565b8015611a415780601f10611a1657610100808354040283529160200191611a41565b820191906000526020600020905b815481529060010190602001808311611a2457829003601f168201915b50505050508152602001600982018054611a5a906120e2565b80601f0160208091040260200160405190810160405280929190818152602001828054611a86906120e2565b8015611ad35780601f10611aa857610100808354040283529160200191611ad3565b820191906000526020600020905b815481529060010190602001808311611ab657829003601f168201915b50505050508152602001600a820160009054906101000a900460ff1615151515815250509050806000015181602001518260400151836060015184608001518560a001518660e00151876101000151886101200151604051602001611b4099989796959493929190612347565b60405160208183030381529060405280519060200120915050919050565b60008060008351604114611b85576040516333ebe12f60e11b815260040160405180910390fd5b50505060208101516040820151606090920151909260009190911a90565b80356001600160a01b0381168114611bba57600080fd5b919050565b600060208284031215611bd157600080fd5b611bda82611ba3565b9392505050565b634e487b7160e01b600052604160045260246000fd5b600067ffffffffffffffff80841115611c1257611c12611be1565b604051601f8501601f19908116603f01168101908282118183101715611c3a57611c3a611be1565b81604052809350858152868686011115611c5357600080fd5b858560208301376000602087830101525050509392505050565b600082601f830112611c7e57600080fd5b611bda83833560208501611bf7565b60008060408385031215611ca057600080fd5b611ca983611ba3565b9150602083013567ffffffffffffffff811115611cc557600080fd5b611cd185828601611c6d565b9150509250929050565b60008060408385031215611cee57600080fd5b611cf783611ba3565b9150602083013567ffffffffffffffff811115611d1357600080fd5b8301601f81018513611d2457600080fd5b611cd185823560208401611bf7565b600080600060608486031215611d4857600080fd5b611d5184611ba3565b9250602084013567ffffffffffffffff80821115611d6e57600080fd5b611d7a87838801611c6d565b93506040860135915080821115611d9057600080fd5b50611d9d86828701611c6d565b9150509250925092565b60008060408385031215611dba57600080fd5b823567ffffffffffffffff80821115611dd257600080fd5b611dde86838701611c6d565b93506020850135915080821115611df457600080fd5b50611cd185828601611c6d565b6000806000806000806000806000806101408b8d031215611e2157600080fd5b8a3567ffffffffffffffff80821115611e3957600080fd5b611e458e838f01611c6d565b9b5060208d0135915080821115611e5b57600080fd5b611e678e838f01611c6d565b9a5060408d0135915080821115611e7d57600080fd5b611e898e838f01611c6d565b995060608d0135915080821115611e9f57600080fd5b611eab8e838f01611c6d565b985060808d0135915080821115611ec157600080fd5b611ecd8e838f01611c6d565b975060a08d0135915080821115611ee357600080fd5b611eef8e838f01611c6d565b965060c08d0135915080821115611f0557600080fd5b611f118e838f01611c6d565b955060e08d0135915080821115611f2757600080fd5b611f338e838f01611c6d565b94506101008d0135915080821115611f4a57600080fd5b611f568e838f01611c6d565b93506101208d0135915080821115611f6d57600080fd5b50611f7a8d828e01611c6d565b9150509295989b9194979a5092959850565b60005b83811015611fa7578181015183820152602001611f8f565b50506000910152565b60008151808452611fc8816020860160208601611f8c565b601f01601f19169290920160200192915050565b602081526000611bda6020830184611fb0565b60008060006040848603121561200457600080fd5b61200d84611ba3565b9250602084013567ffffffffffffffff8082111561202a57600080fd5b818601915086601f83011261203e57600080fd5b81358181111561204d57600080fd5b87602082850101111561205f57600080fd5b6020830194508093505050509250925092565b60008060006060848603121561208757600080fd5b61209084611ba3565b925061209e60208501611ba3565b9150604084013567ffffffffffffffff8111156120ba57600080fd5b611d9d86828701611c6d565b600082516120d8818460208701611f8c565b9190910192915050565b600181811c908216806120f657607f821691505b60208210810361211657634e487b7160e01b600052602260045260246000fd5b50919050565b600080835461212a816120e2565b60018281168015612142576001811461215757612186565b60ff1984168752821515830287019450612186565b8760005260208060002060005b8581101561217d5781548a820152908401908201612164565b50505082870194505b50929695505050505050565b6000826121af57634e487b7160e01b600052601260045260246000fd5b500690565b601f82111561081e57600081815260208120601f850160051c810160208610156121db5750805b601f850160051c820191505b8181101561040a578281556001016121e7565b815167ffffffffffffffff81111561221457612214611be1565b6122288161222284546120e2565b846121b4565b602080601f83116001811461225d57600084156122455750858301515b600019600386901b1c1916600185901b17855561040a565b600085815260208120601f198616915b8281101561228c5788860151825594840194600190910190840161226d565b50858210156122aa5787850151600019600388901b60f8161c191681555b5050505050600190811b01905550565b6000602082840312156122cc57600080fd5b81518015158114611bda57600080fd5b60208082526015908201527412d650d7d7d1185d18511bd95cd39bdd115e1a5cdd605a1b604082015260600190565b8183823760009101908152919050565b6001600160a01b038481168252831660208201526060604082018190526000906112a790830184611fb0565b60008a51612359818460208f01611f8c565b8a5161236b8183860160208f01611f8c565b8a519184010190612380818360208e01611f8c565b89516123928183850160208e01611f8c565b89519290910101906123a8818360208c01611f8c565b87516123ba8183850160208c01611f8c565b87519290910101906123d0818360208a01611f8c565b85516123e28183850160208a01611f8c565b85519290910101906123f8818360208801611f8c565b019b9a505050505050505050505056fea26469706673582212209354ec4db7eb3aec0d55e9efd60dec5a90322451cda5d2e5370202ab2c4a7b7264736f6c63430008110033",
    "linkReferences": {}
  },
  "methodIdentifiers": {
    "approveCondition(address,address,string)": "df4f3547",
    "decryptMyData(address,string)": "d822f825",
    "generateHash(address)": "21a3f733",
    "getEthHashedData(address)": "ff841e0f",
    "getRequestedDataFromProvider(address,string)": "be11ff70",
    "grantAccessToRequester(address,string)": "852beb56",
    "requestApproveFromDataProvider(address,string)": "f2aeb852",
    "revokeGrantToRequester(address,string)": "3df32710",
    "setUserData(string,string,string,string,string,string,string,string,string,string)": "65ca9ba1",
    "storeRsaEncryptedinRetrievable(address,string,string)": "517dfd5a",
    "updateKYCDetails(string,string)": "51f1dd77",
    "verify(address,bytes)": "4a41d1ac"
  },
  "id": 12
}