{
  "abi": [
    {
      "anonymous": false,
      "inputs": [
        {
          "indexed": true,
          "internalType": "address",
          "name": "approver",
          "type": "address"
        },
        {
          "indexed": true,
          "internalType": "address",
          "name": "thirdParty",
          "type": "address"
        },
        {
          "indexed": true,
          "internalType": "string",
          "name": "data",
          "type": "string"
        }
      ],
      "name": "AccessGrant",
      "type": "event"
    },
    {
      "anonymous": false,
      "inputs": [
        {
          "indexed": true,
          "internalType": "address",
          "name": "requester",
          "type": "address"
        },
        {
          "indexed": true,
          "internalType": "address",
          "name": "to",
          "type": "address"
        },
        {
          "indexed": true,
          "internalType": "string",
          "name": "data",
          "type": "string"
        }
      ],
      "name": "ApproveRequest",
      "type": "event"
    },
    {
      "anonymous": false,
      "inputs": [
        {
          "indexed": true,
          "internalType": "address",
          "name": "approver",
          "type": "address"
        },
        {
          "indexed": true,
          "internalType": "address",
          "name": "requester",
          "type": "address"
        },
        {
          "indexed": false,
          "internalType": "string",
          "name": "data",
          "type": "string"
        }
      ],
      "name": "GrantRevoke",
      "type": "event"
    },
    {
      "inputs": [
        {
          "internalType": "address",
          "name": "dataRequester",
          "type": "address"
        },
        {
          "internalType": "address",
          "name": "dataProvider",
          "type": "address"
        },
        {
          "internalType": "string",
          "name": "data",
          "type": "string"
        }
      ],
      "name": "approveCondition",
      "outputs": [
        {
          "internalType": "bool",
          "name": "",
          "type": "bool"
        }
      ],
      "stateMutability": "view",
      "type": "function"
    },
    {
      "inputs": [
        {
          "internalType": "address",
          "name": "dataRequester",
          "type": "address"
        },
        {
          "internalType": "string",
          "name": "kycField",
          "type": "string"
        }
      ],
      "name": "grantAccessToRequester",
      "outputs": [],
      "stateMutability": "nonpayable",
      "type": "function"
    },
    {
      "inputs": [
        {
          "internalType": "address",
          "name": "dataProvider",
          "type": "address"
        },
        {
          "internalType": "string",
          "name": "kycField",
          "type": "string"
        }
      ],
      "name": "requestApproveFromDataProvider",
      "outputs": [],
      "stateMutability": "nonpayable",
      "type": "function"
    },
    {
      "inputs": [
        {
          "internalType": "address",
          "name": "dataRequester",
          "type": "address"
        },
        {
          "internalType": "string",
          "name": "kycField",
          "type": "string"
        }
      ],
      "name": "revokeGrantToRequester",
      "outputs": [],
      "stateMutability": "nonpayable",
      "type": "function"
    }
  ],
  "bytecode": {
    "object": "0x608060405234801561001057600080fd5b506108d4806100206000396000f3fe608060405234801561001057600080fd5b506004361061004c5760003560e01c80633df3271014610051578063852beb5614610066578063df4f354714610079578063f2aeb852146100a0575b600080fd5b61006461005f366004610556565b6100b3565b005b610064610074366004610556565b6101f8565b61008c6100873660046105a4565b61033d565b604051901515815260200160405180910390f35b6100646100ae366004610556565b61037f565b818160006100c2338484610461565b9050816040516020016100d59190610626565b60408051601f19818403018152828252805160209182012060008581526001835292909220919261010792910161067c565b604051602081830303815290604052805190602001201461016b5760405162461bcd60e51b81526020600482015260196024820152784f78417574685f5f4e6f74417070726f766564546f5669657760381b60448201526064015b60405180910390fd5b6000610178338787610461565b90506000610189602083831a6106f2565b905060006001821b6000848152602081905260409081902080548319169055519091506001600160a01b0389169033907f1c74b14b2a92b57b505a4f01e3b18f7b7f09f7038625fea406fa666f3308e936906101e6908b90610740565b60405180910390a35050505050505050565b81816000610207338484610461565b90508160405160200161021a9190610626565b60408051601f19818403018152828252805160209182012060008581526001835292909220919261024c92910161067c565b60405160208183030381529060405280519060200120146102ab5760405162461bcd60e51b81526020600482015260196024820152784f78417574685f5f4e6f74417070726f766564546f5669657760381b6044820152606401610162565b60006102b8338787610461565b905060006102c9602083831a6106f2565b905060006001821b60008481526020819052604090819020805483179055519091506102f6908890610626565b604051908190038120906001600160a01b038a169033907ff458a6134491d63bea827b8e9366ebc67361bdd8733bc0e0e9ba1a23ac9a85dc90600090a45050505050505050565b60008061034b848685610461565b9050600061035c602083831a6106f2565b60009283526020839052604090922054600190921b909116151595945050505050565b600061038c833384610461565b60008181526001602052604090208054919250906103a990610642565b1590506103f85760405162461bcd60e51b815260206004820152601760248201527f4f78417574685f5f4f6e6c794f6e6365416c6c6f7765640000000000000000006044820152606401610162565b600081815260016020526040902061041083826107a9565b508160405161041f9190610626565b6040519081900381209033906001600160a01b038616907f16d065f1eb4e9eb9d81ef1ac8d5a705b0e9446f547727b761afd319c8fe4e41690600090a4505050565b600083838360405160200161047893929190610869565b6040516020818303038152906040528051906020012090509392505050565b80356001600160a01b03811681146104ae57600080fd5b919050565b634e487b7160e01b600052604160045260246000fd5b600082601f8301126104da57600080fd5b813567ffffffffffffffff808211156104f5576104f56104b3565b604051601f8301601f19908116603f0116810190828211818310171561051d5761051d6104b3565b8160405283815286602085880101111561053657600080fd5b836020870160208301376000602085830101528094505050505092915050565b6000806040838503121561056957600080fd5b61057283610497565b9150602083013567ffffffffffffffff81111561058e57600080fd5b61059a858286016104c9565b9150509250929050565b6000806000606084860312156105b957600080fd5b6105c284610497565b92506105d060208501610497565b9150604084013567ffffffffffffffff8111156105ec57600080fd5b6105f8868287016104c9565b9150509250925092565b60005b8381101561061d578181015183820152602001610605565b50506000910152565b60008251610638818460208701610602565b9190910192915050565b600181811c9082168061065657607f821691505b60208210810361067657634e487b7160e01b600052602260045260246000fd5b50919050565b600080835461068a81610642565b600182811680156106a257600181146106b7576106e6565b60ff19841687528215158302870194506106e6565b8760005260208060002060005b858110156106dd5781548a8201529084019082016106c4565b50505082870194505b50929695505050505050565b60008261070f57634e487b7160e01b600052601260045260246000fd5b500690565b6000815180845261072c816020860160208601610602565b601f01601f19169290920160200192915050565b6020815260006107536020830184610714565b9392505050565b601f8211156107a457600081815260208120601f850160051c810160208610156107815750805b601f850160051c820191505b818110156107a05782815560010161078d565b5050505b505050565b815167ffffffffffffffff8111156107c3576107c36104b3565b6107d7816107d18454610642565b8461075a565b602080601f83116001811461080c57600084156107f45750858301515b600019600386901b1c1916600185901b1785556107a0565b600085815260208120601f198616915b8281101561083b5788860151825594840194600190910190840161081c565b50858210156108595787850151600019600388901b60f8161c191681555b5050505050600190811b01905550565b6001600160a01b0384811682528316602082015260606040820181905260009061089590830184610714565b9594505050505056fea26469706673582212202114d2932f6ffe2d3d158a8ec067af9ac88e6ff079366df11007881274743d6c64736f6c63430008110033",
    "linkReferences": {}
  },
  "methodIdentifiers": {
    "approveCondition(address,address,string)": "df4f3547",
    "grantAccessToRequester(address,string)": "852beb56",
    "requestApproveFromDataProvider(address,string)": "f2aeb852",
    "revokeGrantToRequester(address,string)": "3df32710"
  },
  "id": 14
}